:020000040800F2
:10000000980B0020D5010008DD010008DF01000881
:10001000E1010008E3010008E5010008000000001C
:10002000000000000000000000000000E7010008E0
:10003000E901000800000000EB010008ED010008E4
:10004000EF010008EF010008EF010008EF010008D0
:10005000EF010008EF010008EF010008EF010008C0
:10006000EF010008EF010008EF010008EF010008B0
:10007000EF010008EF010008EF010008EF010008A0
:10008000EF010008EF010008EF010008EF01000890
:10009000EF010008EF010008EF010008EF01000880
:1000A000EF010008EF010008EF010008EF01000870
:1000B000EF010008EF010008EF010008EF01000860
:1000C000EF010008EF010008EF010008EF01000850
:1000D000EF010008EF010008EF010008EF01000840
:1000E000EF010008EF010008EF010008EF01000830
:1000F000EF010008EF010008EF010008EF01000820
:10010000EF010008EF010008EF010008EF0100080F
:10011000EF010008EF010008EF010008EF010008FF
:10012000EF010008EF010008EF010008EF010008EF
:10013000EF010008EF01000800F002F800F03AF8C3
:100140000AA090E8000C82448344AAF10107DA4532
:1001500001D100F02FF8AFF2090EBAE80F0013F04A
:10016000010F18BFFB1A43F0010318475019000094
:1001700070190000103A24BF78C878C1FAD8520725
:1001800024BF30C830C144BF04680C607047000011
:100190000023002400250026103A28BF78C1FBD890
:1001A000520728BF30C148BF0B6070471FB51FBD45
:1001B00010B510BD00F0A8F81146FFF7F7FF01F0E9
:1001C0007BFB00F0C6F803B4FFF7F2FF03BC00F0BE
:1001D000CDF800000948804709480047FEE7FEE7E0
:1001E000FEE7FEE7FEE7FEE7FEE7FEE7FEE7FEE7E7
:1001F00004480549054A064B7047000041160008AF
:100200003901000898050020980B0020980700206D
:1002100098070020032A40F2308010F0030C00F011
:10022000158011F8013BBCF1020F624498BF11F830
:1002300001CB00F8013B38BF11F8013BA2F10402E9
:1002400098BF00F801CB38BF00F8013B11F0030361
:1002500000F02880083AC0F0088051F8043B083AC2
:1002600051F804CBA0E80810F5E7121D5CBF51F867
:10027000043B40F8043BAFF30080D20724BF11F8E1
:10028000013B11F801CB48BF11F8012B24BF00F846
:10029000013B00F801CB48BF00F8012B70477047C5
:1002A0007047704710B5203AC0F00B80B1E8185085
:1002B000A0E81850B1E81850A0E81850203ABFF450
:1002C000F5AF5FEA027C24BFB1E81850A0E81850EF
:1002D00044BF18C918C0BDE810405FEA827C24BF43
:1002E00051F8043B40F8043B08BF7047D20728BFD1
:1002F00031F8023B48BF11F8012B28BF20F8023B20
:1003000048BF00F8012B7047754600F02BF8AE4649
:1003100005006946534620F00700854618B020B511
:10032000FFF766FFBDE820404FF000064FF00007E2
:100330004FF000084FF0000BAC46ACE8C009ACE849
:10034000C009ACE8C009ACE8C00921F007018D463E
:10035000704710B50446AFF300802046BDE810405A
:10036000FFF731BF004870471800002001491820EE
:10037000ABBEFEE7260002007047000010B584B057
:1003800044F2140400210391C5F600042168B1F180
:10039000FF3F0CDC40F22311C4F2675144F80C1CFF
:1003A00048F6AB11CCF6EF5144F80C1C2168022141
:1003B000CDE900105C2003A90290684600F088F89F
:1003C0002168002841F000412160216818BF012008
:1003D00004B010BD44F21400C5F600000168B1F18C
:1003E000FF3F0CDC40F22311C4F2675140F80C1CB3
:1003F00048F6AB11CCF6EF5140F80C1C01684CF2FA
:10040000700140F8041C016841F00041016000687F
:10041000704700002DE9F04381B044F2140805460E
:100420000C46C5F60008D8F80000B0F1FF3F0DDC1F
:1004300040F22310C4F2675048F80C0C48F6AB1099
:10044000CCF6EF5048F80C0CD8F800000020B0EBC8
:10045000520F23D04FF6F979C0F602094D451DD24F
:1004600056080127D4E900230120294600F002F9AB
:1004700088B9D4E90001D5E9002359405040084328
:100480000BD1B7424FF000003FBF083401370835A9
:100490004D45E7D302E0032000E00220D8F8001029
:1004A00041F00041C8F80010D8F8001001B0BDE8D4
:1004B000F083000081B0009040F2FF730121009AA8
:1004C000D00A1A4218BF01EBD22001B070470000D9
:1004D0002DE9F04F81B040F2801805460C46C2F27B
:1004E000000898F80000012801D10220B7E001209F
:1004F00088F800000020C8F8040000F015FA44F263
:1005000010070646C5F60007386810F4803F07D08C
:1005100000F00AFA801BB0F57A7FF5D303209BE048
:10052000386810F0010F1CBF012139604CF2FA311C
:10053000084005D03860C8F8040001208CE000BFF6
:10054000386810F4802F07D000F0EEF9801BB0F56A
:100550007A7FF5D303207FE0286804280ED100F0CD
:10056000E3F90446386810F4803F4CD000F0DCF921
:10057000001BB0F57A7FF5D3032069E04FF0FF3020
:100580002060D5E901904844814557D24FF6054A8D
:1005900040F2020BCFF6FE7AC0F2010B786800EA57
:1005A0000A0040EAC90040EA0B00786000F0BCF99C
:1005B000064600BF386810F4803F06D000F0B4F95A
:1005C000801BB0F57A7FF5D33AE0386810F0010F60
:1005D0001CBF012139604CF2FA31084045D138681E
:1005E00010F4802F06D000F09FF9801BB0F57A7FC1
:1005F000F5D325E0D5E9010109F101090144002005
:100600008945CBD31FE0386810F0010F1CBF0121D2
:1006100039604CF2FA31084004D03860C8F8040060
:10062000012015E0386810F4802F1CD000F07CF910
:10063000001BB0F57A7FF5D3032009E0002002E02B
:100640000320C4F80090796840F2FA32914379604F
:1006500057F8101C57F8101C002188F80010C0B281
:1006600001B0BDE8F08F0020F2E73860C8F8040060
:100670000120E6E72DE9F04740F2801980469A46CE
:1006800016460D46C2F2000999F80000012802BF83
:100690000220C0B2BDE8F087012089F800000020E8
:1006A000C9F8040000F040F944F210070446C5F60A
:1006B000000700BF386810F4803F07D000F034F91D
:1006C000001BB0F57A7FF5D3032027E1386810F0DE
:1006D000010F1CBF012139604CF2FA31084005D0EE
:1006E0003860C9F80400012018E100BF386810F430
:1006F000802F07D000F018F9001BB0F57A7FF5D3F2
:1007000003200BE1B8F1010F09D1786840F0010036
:1007100078602E60BFF36F8FC5F804A0CEE07868D4
:1007200040F480207860EFF31080EFF3108172B610
:100730003168296071686960B168A960F168E96031
:100740003169296171696961B169A961F169E96119
:10075000316A2962716A6962B16AA962F16AE96201
:10076000316B2963716B6963B16BA963F16BE963E9
:10077000316C2964716C6964B16CA964F16CE964D1
:10078000316D2965716D6965B16DA965F16DE965B9
:10079000316E2966716E6966B16EA966F16EE966A1
:1007A000316F2967716F6967B16FA967F16FE96789
:1007B000D6F88010C5F88010D6F88410C5F88410DB
:1007C000D6F88810C5F88810D6F88C10C5F88C10AB
:1007D000D6F89010C5F89010D6F89410C5F894107B
:1007E000D6F89810C5F89810D6F89C10C5F89C104B
:1007F000D6F8A010C5F8A010D6F8A410C5F8A4101B
:10080000D6F8A810C5F8A810D6F8AC10C5F8AC10EA
:10081000D6F8B010C5F8B010D6F8B410C5F8B410BA
:10082000D6F8B810C5F8B810D6F8BC10C5F8BC108A
:10083000D6F8C010C5F8C010D6F8C410C5F8C4105A
:10084000D6F8C810C5F8C810D6F8CC10C5F8CC102A
:10085000D6F8D010C5F8D010D6F8D410C5F8D410FA
:10086000D6F8D810C5F8D810D6F8DC10C5F8DC10CA
:10087000D6F8E010C5F8E010D6F8E410C5F8E4109A
:10088000D6F8E810C5F8E810D6F8EC10C5F8EC106A
:10089000D6F8F010C5F8F010D6F8F410C5F8F4103A
:1008A000D6F8F810C5F8F810D6F8FC10C5F8FC100A
:1008B000396811F4803FFBD180F3108800F034F8E0
:1008C000044600BF386810F4803F07D000F02CF8D1
:1008D000001BB0F57A7FF5D303201BE0386810F0D9
:1008E000010F1CBF012139604CF2FA31084005D0DC
:1008F0003860C9F8040001200CE000BF386810F42B
:10090000802F06D000F010F8001BB0F57A7FF5D3E9
:10091000E2E70020796821EA080179600021C0B28D
:1009200089F80010BDE8F08740F20C00C2F2000028
:10093000406870472DE9F04144F683334A0A4CF68B
:1009400000254FF0300C0227C0F20403C3F69A359D
:10095000A2FB032E4FEADE144CEADE1304FB15154E
:1009600043F68931B3F130020370C5F2E651B2FAB1
:1009700082F818BF0122302BA5FB01144FEA581E44
:100980004CEA5466A6F13003865408BF0127B3FA37
:1009900083F149091EEA010F014608BF3944670E79
:1009A0004EF20014302EC0F2F55407FB145E4CF6E4
:1009B0006B25C6F65F35AEFB05544CEA945801F83A
:1009C000018B18BF0123A8F130061343B6FA86F74E
:1009D000D5187F09B5FA85F22B4652093A424FEAFB
:1009E000945249F280644DF68367C0F29804C4F2D1
:1009F0001B3718BF0146B8F1300F02FB14E24FF06D
:100A0000000EA2FB07740CEB944701F8017B18BFA2
:100A10000126002D4FF0000718BF0123334344F295
:100A200040261D44C0F20F06B5FA85F3B2424FEAE4
:100A3000531338BF01273B424FEA944344F23F240B
:100A40002F4603FB162845F6C52618BF0146002D84
:100A5000C0F20F044FEA5813C0F67C26A3FB0636FB
:100A60004CEAD61301F8013B18BF0127A2424FF010
:100A7000000288BF01223A432A44A3F13005B2FAAA
:100A800082F4B5FA85F764097F093C424FEAD6142F
:100A900040F6354606FB04F441F2597618BF01468C
:100AA000302B1346A8EB4418CDF2B716A8FB066707
:100AB0004CEA573601F8016B18BF0125002A18BF10
:100AC00001232B43A6F130051344B5FA85F4B3FA9C
:100AD00083F26409520922424FEA573242F21074FB
:100AE00002FB148244F6D35418BF0146302EC1F2E3
:100AF0006204A2FB04470CEB971401F8014B18BFEA
:100B00000125002B1C4618BF0124B2F57A7F44EA68
:100B100005044FF000051C4438BF0125B4FA84F3E6
:100B20005B092B424FEA97134FF47A75274603FB74
:100B3000152848F21F5318BF0146002C4FEAD20275
:100B4000C5F2EB13A8FB03364CEA561301F8013B40
:100B500018BF01277C2A88BF4FF0010E47EA0E021A
:100B60002244A3F13004B2FA82F7B4FA84F57F0983
:100B70006D092F424FEA56174FF0640607FB1687A0
:100B80004CF6CD4618BF0146CCF6CC46A7FB066511
:100B90004CEAD50601F8016B302E18BF0846302B01
:100BA000134618BF0124002A18BF01232343DA4249
:100BB00018BF0846E90801EB8101A7EB410141F0AC
:100BC00030010170BDE8F0812DE9F04F81B0D1F81E
:100BD00000B09BFAABF2B2FA82F23BFA02F365D0B4
:100BE00000F1240300F1200E4FF0010A009300BF32
:100BF0000AFA02F313EA0B0354D04E6893FAA3F4F3
:100C0000D0F800C0B4FA84F903244FEA490704FA83
:100C100007F82CEA080406FA07F56FEA08082543E6
:100C2000741E012C056010D88C6804FA07FC8468D7
:100C300004EA080444EA0C048460CC6804FB03FC66
:100C400044689C4344EA0C0444600C69C568022E65
:100C500004FA07F405EA080545EA0405C5601AD157
:100C6000B3F5807F7646D1F814B04FF00F0421BF62
:100C70001B0A93FAA3F3B3FA83F9009E4FEA8903A0
:100C80000BFA03F504FA03F3346824EA03032B4355
:100C90003360D1E900B606FA07F3076807EA0807E8
:100CA0003B43036001323BFA02F3A1D1012001B0C2
:100CB000BDE8F08F44F6D351C1F26201A0FB0101FF
:100CC0004FF0FF3000EB91104EF21001CEF2000118
:100CD00048600020886005200860704710B508242F
:100CE0000328C5F60004D4F8801001EA000141EAA7
:100CF000004242F20041C0F2F40117D1B2F1031FE9
:100D00003CD00220C0F2030082423ED00120C0F25B
:100D10000300824204BFBDE8104000F0A5B900F016
:100D2000A3F921682268C2F3C22215E0A2F540208F
:100D30000322B2EBB00F21D04FEAB000022824D03A
:100D4000012804BFBDE8104000F08EB900F08CF916
:100D500021682268C2F3022241F63423C0F6000360
:100D600053F822203C2303EA910141F6F413C0F624
:100D700000035958B0FBF1F0D04010BDD4F8880002
:100D80004FF4004101EA803010BD4FF0B0400068E0
:100D900010F4806018BF084610BD000040F2140136
:100DA000C2F200010860704770B500284FF00103DF
:100DB00018BF00292AD04EF2140344F21C4C4FF6FF
:100DC000FF7ECEF20003C4F2000C1C68DCF8005079
:100DD00015F0200F11D115466E1C04D0C5B11E6848
:100DE000A61BAE4214D853F8046CF60305EBE67567
:100DF000DCF8006016F0200FEED0DCF80840013976
:100E000011EA0E0F00F8014BDFD10023D8B270BDFC
:100E10000323D8B270BD0000B0B504460D4620686B
:100E200010F0010F1CBF0020B0BD206846F6F31182
:100E3000CEF6FF7100EA010CA968D5E90423E86940
:100E400041EA0C011143194308432060E8686168D6
:100E500021F4405108436060A869A16821F4407101
:100E60000843A06044F20040C4F20000844207D06E
:100E700043F60000C4F20100844220D1032000E0C8
:100E80000C20FFF72BFFE0B16968E1B12A680B2A5B
:100E900020D8D2B213A353F82220EB69B0FBF2F0B2
:100EA0004A08B3F5004F10D102EB4000B0FBF1F05F
:100EB0004FF6F0710140C0F34200084309E0002002
:100EC00009E0002007E0002005E01044B0FBF1F04D
:100ED00080B2E06001202988E26A22F00F0211430B
:100EE000E162B0BD0100000002000000040000004B
:100EF00006000000080000000A0000000C000000CE
:100F000010000000200000004000000080000000F1
:100F10000001000081B04EF21001CEF200010A681B
:100F20000092421C08BF024600982AB10868C0031C
:100F300002EBE072002AF9D101B0704770B582B0BF
:100F400042F20005002000268DF80700C0F60005DB
:100F5000C2F6FE7628683040B0F1005F0DD10DF189
:100F6000070001216422FFF71FFFF0B99DF8070079
:100F700031281AD100F016F91AE01BA000F090F900
:100F800029A000F08DF90DF1070400BF20460121D2
:100F900043F69822FFF708FF0028F7D19DF80700D5
:100FA000312808BF00F0FEF802E032208DF807007B
:100FB00028683040B0F1005F0ED1686840F27801D7
:100FC000C2F20001021DC1E90002286880F308880E
:100FD0004868804702B070BD41F69420C0F600001A
:100FE00000F05EF902B070BD2020446F776E6C6F28
:100FF000616420696D61676520746F207468652085
:10100000696E7465726E616C20466C617368202D28
:101010002D2D2D2D2D2D2D2D2D2D2D2D2D2D2D2D00
:1010200020310D0A0A0000002020457865637574A0
:101030006520746865206C6F616465642061707000
:101040006C69636174696F6E202D2D2D2D2D2D2DF2
:101050002D2D2D2D2D2D2D2D2D2D2D2D2D2D2D2DC0
:1010600020320D0A0A00000040F2940C42F20042C5
:10107000C5F6000CC0F2F4025CF88C0CC0F38101E0
:10108000012904BF1046704740F6001341F20020CA
:101090000229C0F23D03C0F27A001BD0032921D1FE
:1010A0005CF8881C01F00301032932D0022963D0C7
:1010B0004FF0B04001290168006800F0080011F00D
:1010C000080F41D1002846D04FF0B04008220068F8
:1010D00000204AE04FF0B041096811F4801F18BFAA
:1010E000184670474FF0B0400168006800F00800F3
:1010F00011F0080F06D1A8B14FF0B04008210068E8
:10110000002019E0A0B14FF0B040006800F0F000FE
:1011100011E04FF0B041096811F4801F18BF184664
:10112000024629E0DCF80000082100F4706003E0CA
:10113000DCF8000000200421C84041F65421C0F62C
:10114000000151F82000704758B14FF0B0400068DE
:1011500000F0F00008E0DCF80000082200F4706005
:1011600003E0DCF800000020042241F65421D040C6
:10117000C0F6000151F8202080B55CF8880C5CF8BE
:1011800088EC5CF8883C0121C0F3062001EB537128
:101190005043CEF302120132B0FBF2F0B0FBF1F09B
:1011A00080BD0000B0B584B000208DF80E00ADF811
:1011B0000C00CDE9010013A000F072F815A000F0BA
:1011C0006FF816A000F06CF840F29810C2F2000020
:1011D00000F038FA0446C820FFF79CFE64B101AD68
:1011E00021462846FFF7A6FB1CA000F059F8284628
:1011F00000F056F81CA000E01EA000F051F804B06A
:10120000B0BD00BF0A0D4941505F56455253494F8A
:101210004E3A2000312E302E300000000A0D57616A
:101220006974696E6720666F7220746865206669EC
:101230006C6520746F2062652073656E74202E2E9D
:101240002E202870726573732027612720746F2009
:1012500061626F7274290A0D000000000A0D2053AC
:10126000697A653A200000002042797465730D0A9E
:10127000000000000D0A446F776E6C6F61642046B9
:1012800061696C0A0D00000044F21C41C4F20001C7
:101290000A6812F0800FFBD0C86000207047000081
:1012A0000178002908BF704744F21C42C4F20002D2
:1012B000136813F0800FFBD0C9B2D16010F8011F82
:1012C0000029F5D17047000010B590F800E0BEF19C
:1012D000300F40F01E81427842F02002782A40F020
:1012E00016818378002B00F04581A3F1300C5FFA62
:1012F0008CF20A2A15D3A3F1410CBCF1060F24BFCE
:10130000A3F16102062A80F044815FFA8CFC6FF041
:101310006002BCF1060F38BF6FF040021A4402F1C0
:101320000A0CC378002B00F02781A3F13002D4B25D
:101330000A2C13D3A3F16102062A24BFA3F14102B0
:10134000052A00F22881A3F141026FF06004D2B2B5
:10135000062A38BF6FF040041A190A32037902EBEB
:101360000C1C002B00F00881A3F13002D4B20A2C2F
:1013700013D3A3F16102062A24BFA3F14102052A77
:1013800000F20981A3F141026FF06004D2B2062A93
:1013900038BF6FF040041A190A32437902EB0C1C73
:1013A000002B00F0E980A3F13002D4B20A2C13D351
:1013B000A3F16102062A24BFA3F14102052A00F22B
:1013C000EA80A3F141026FF06004D2B2062A38BF6E
:1013D0006FF040041A190A32837902EB0C1C002BBF
:1013E00000F0CA80A3F13002D4B20A2C13D3A3F1C7
:1013F0006102062A24BFA3F14102052A00F2CB8034
:10140000A3F141026FF06004D2B2062A38BF6FF038
:1014100040041A190A32C37902EB0C1C002B00F0AD
:10142000AB80A3F13002D4B20A2C13D3A3F1610232
:10143000062A24BFA3F14102052A00F2AC80A3F1E1
:1014400041026FF06004D2B2062A38BF6FF0400448
:101450001A190A32037A02EB0C1C002B00F08C8064
:10146000A3F13002D4B20A2C13D3A3F16102062AED
:1014700024BFA3F14102052A00F28D80A3F14102AD
:101480006FF06004D2B2062A38BF6FF040041A1918
:101490000A32437A02EB0C1C002B6DD0A3F1300210
:1014A000D4B20A2C12D3A3F16102062A24BFA3F1FD
:1014B0004102052A6FD8A3F141026FF06004D2B255
:1014C000062A38BF6FF040041A190A32837A02EBF9
:1014D0000C1C002B50D0A3F13002D4B20A2C12D332
:1014E000A3F16102062A24BFA3F14102052A52D8C2
:1014F000A3F141026FF06004D2B2062A38BF6FF048
:1015000040041A190A32C37A02EB0C1C43E04FF074
:10151000300E4FF0000C012215E000BFAEF1300399
:10152000DBB2092B84BF002010BD0A2A84BF002033
:1015300010BD845C0CEB8C0301325B0053FA8EF31C
:10154000A3F1300CA6465FFA8EF36B2B18D09BB13B
:10155000012A01D04B2B17D06D2B04D0012ADDD0EE
:101560004D2BDBD103E0012A04BF002010BD4FEA60
:101570000C500BE04FF0000C0120C1F800C010BD72
:10158000012A04BF002010BD4FEA8C200860012012
:1015900010BD4FF0000C002B1CBF002010BDEBE76E
:1015A00044F20000C5F60000016821F00701016067
:1015B000016811F0070FFBD108200222C5F60000D8
:1015C000D0F8F81362F34A21C0F8F8134FF0B04195
:1015D0000A6842F480720A600A6812F4806FFBD0D5
:1015E00050F8041C402262F31E61012240F8041CE2
:1015F000016862F301010160016801F00C01042936
:10160000FAD110B5016842F20044C0F2F40421F0AE
:10161000F0010160D0F8001121F00F01C0F80011B5
:10162000016821F4E0610160016821F4605101600A
:101630002046FFF73FFB2046BDE81040FFF7AEBB5A
:10164000704700002DE9F04FADF5866D81B0049034
:10165000002042F200010DF12E090DF23346002464
:10166000069040F20000C0F60001C2F200000160E6
:1016700009F1050009F10301019009F1040003914A
:10168000029000BF0020059026E000210DF11E0011
:10169000415506A9FFF718FE47F2E0504FF600410A
:1016A000C1F6FF70C0F2FF31006801EA8020411EE0
:1016B0000698884200F2F280FEF7FCFE606004208B
:1016C000FEF75CFE0620FFF7DFFD4320FFF7DCFDA1
:1016D0000598012401300590002C4FF00008C8BF88
:1016E0004FF0010808E000BF0599C9B2884200F038
:1016F00064801520FFF7C8FD4FF0000A1DE09DF83B
:1017000030109DF82F00C943C9B28842ECD01BE0CD
:10171000304601214FF4FA62FFF746FB002804BF70
:101720009DF8330418280FD1AAE0412818BF61287A
:101730000AD1AAE04320FFF7A7FD304601214FF46C
:10174000FA62FFF731FB28B1C244BAF1060FF1DBB0
:101750008AE000BF9DF83304411E1729E5D8802791
:10176000DFE801F01412110D1111111111111111F5
:1017700011111111111111111111110CC8E70620CD
:10178000FFF782FD7EE7DFE74FF480678DF82E00DC
:1017900047F0050501204FF0010B00BF484401212F
:1017A0004FF4FA62FFF700FB0028CDD10BF1010BDB
:1017B0001FFA8BF08542F1D8A1E7059840B3DDF818
:1017C000108003993A464046FEF724FD40F200059A
:1017D00041460024C2F20005C5F8088042F2000824
:1017E0002868C0F6000800BF069A424490420DD215
:1017F0000422FEF70FFE28681034BC4200F11000EE
:101800002860A96801F11001A960EDDB06205DE701
:101810009DF8310040F20004C2F20004002846D0D6
:10182000029B40F280070021C2F200074A1CFE29F9
:10183000785403DC585C11460028F7D1995C0025E8
:10184000BD5420293FF421AF01980023024400BF7A
:101850000DF11E005D1C0E2BC1543FF716AFD15C7D
:101860002B462029F4D110E71820FFF70DFD182092
:10187000FFF70AFD00200DF5866D01B0BDE8F08F81
:101880000620FFF701FD0020F5E71820FFF7FCFC1C
:101890001820FFF7F9FC6FF00200ECE71820FFF7C3
:1018A000F3FC1820FFF7F0FC4FF0FF30E3E70620D1
:1018B000FFF7EAFC0698DEE7B0B58EB04EF60C50A6
:1018C0004FF6FF02CEF200000168114040F20032F4
:1018D000C0F2FA52114301600168C1F302210A1DEE
:1018E000CB1E81F00701072A4FF0010238BF002309
:1018F000042928BF042102FA01F10F3101F00F0180
:1019000099400901C175FFF74BFE4C200C240025BE
:10191000C5F60000016841F001010160016801F0B5
:10192000010106910699C16B21F00C01C163C168E8
:1019300041F40031C160C16801F40031069106999B
:10194000016841F0010101606946006800F0010092
:10195000069006980094022001900720CDE90255D8
:10196000049505904FF09040FFF72EF94FF4E130C9
:10197000069506A9CDE90705CDE90955CDE90B4541
:1019800044F200440D95C4F200042046FFF744FAE7
:1019900044F20840C4F2000050E8001F21F060410A
:1019A00040E80012002AF7D150E8001F21F06061E2
:1019B00040E80012002AF7D1206820F00050206093
:1019C000606820F490406060A06820F02A00A06069
:1019D000206840F001002060E06910F4001FFBD097
:1019E000E06910F4800FF7D0FEF7F4FCFFF7A6FAD9
:1019F000FEE70000010000000300000005000000F9
:101A00000100000001000000060000000A000000C4
:101A10002000000002000000040000000800000098
:101A200010000000400000008000000000010000E5
:101A300000020000000000000000000000000000A4
:101A40000000000001000000020000000300000090
:101A500004000000A0860100400D0300801A06006B
:101A600000350C0040420F0080841E0000093D003C
:101A700000127A000024F40000366E010048E801EC
:101A8000006CDC020000000000000000000000000C
:101A9000000000004170706C69636174696F6E20B2
:101AA000636F6465206973206E6F7420696E206DAA
:101AB000656D6F72790D0A0A00000000E01A0008D7
:101AC000000000201800000074010008F81A000847
:101AD00018000020800B00009001000800000000AA
:101AE00000200008000000000000000001000000CD
:081AF0000000000000093D00A8
:0400000508000139B5
:00000001FF
